:1000000019C200004FC200004DC200004BC20000E8
:1000100049C2000047C2000045C2000043C20000C0
:1000200041C200003FC200000C943B260C940827FC
:100030000C94F02137C2000035C2000033C200002A
:1000400031C200002FC200002DC200002BC20000F0
:1000500029C200000C943C2225C2000023C20000EB
:1000600021C200001FC200001DC200001BC2000010
:1000700019C2000017C2000015C2000013C2000020
:1000800011C200000FC200000DC200000BC2000030
:1000900009C2000007C2000005C2000003C2000040
:1000A00001C20000FFC10000FDC1000029003A00AC
:1000B0003B003C003D003E003F004000410042004C
:1000C0004300440045000000680035001E001F008A
:1000D0002000210022002300240025002600270004
:1000E0002D002E002A004B002B0014001A000800DF
:1000F000150017001C0018000C00120013002F0040
:10010000300031004E0039000400160007000900DD
:100110000A000B000D000E000F0033003400280011
:1001200000004D00E1001D001B0006001900050045
:1001300011001000360037003800E50000005200C2
:100140004C00E000E300E200000000002C00000092
:100150000000E600215200005000000051004F0056
:10016000007C01000100010001000100010001000C
:100170000100010001000100010000000100010078
:100180000100010001000100010001000100010067
:100190000100010001000100010047780100010099
:1001A0000100010001000100010001000100010047
:1001B0000100010001000100487801000100010078
:1001C0000100010001000100010001000100010027
:1001D000010001000000457801000100010001005C
:1001E0000100010001000100010001000100010007
:1001F000000049784678010001000100000000007D
:100200004378000000004278010000004C780000B4
:100210004A784B780001010101010101010102024C
:1002200002020202020202030303030303030304A4
:10023000040404040404050505050506060606066F
:10024000070707070708080808090909090A0A0A29
:100250000B0B0B0C0C0C0D0D0D0E0E0E0F0F0F10CB
:100260001011111112121313141415151616171755
:10027000181819191A1A1B1B1C1D1D1E1E1F2020C1
:10028000212222232424252626272829292A2B2C0B
:100290002D2D2E2F30313232333435363738393A2E
:1002A0003B3C3D3E3F404142434445464748494A26
:1002B0004C4D4E4F50515354555658595A5B5D5EF4
:1002C0005F616264656668696B6C6D6F707273758F
:1002D00077787A7B7D7E8082838587888A8C8E8FF3
:1002E00091939596989A9C9EA0A2A3A5A7A9ABAD21
:1002F000AFB1B3B5B7BABCBEC0C2C4C6C9CBCDCF0F
:10030000D1D4D6D8DBDDDFE2E4E7E9EBEEF0F3F5BC
:10031000F8FAFDFF120362007500620062006C00D3
:1003200065003700350000000803700068006C00AD
:1003300000000403090409023B00020100A0FA09BD
:100340000400000103010100092111010001224400
:1003500000070581030800010904010001030000F2
:1003600000092111010001226D0007058203200010
:1003700001120100020000000842424C5A01000133
:1003800002000105010980A101850319012AB700B6
:10039000150126B700950175108100C0050C0901F3
:1003A000A101850419012AA002150126A0029501C8
:1003B00075108100C005010906A101850605071910
:1003C000E029E71500250195087501810205071947
:1003D0000029EF1500250195F07501810205081926
:1003E000012905950575019102950175039101C0DB
:1003F00005010906A101050719E029E715002501F6
:10040000950875018102950175088101050719009C
:1004100029FF150026FF00950675088100050819BB
:1004200001290515002501950575019102950175B4
:10043000039101C011241FBECFEFDAE0DEBFCDBFB4
:1004400004B603FE18C08091E7059091E805A091DD
:10045000E905B091EA058730904BA740B04B59F4BD
:100460001092E7051092E8051092E9051092EA054E
:10047000E0E0F8E3099513E0A0E0B1E0EAE1F5E59A
:1004800002C005900D92A830B107D9F725E0A8E089
:10049000B3E001C01D92A73EB207E1F70E941D1113
:1004A0000C94182AADCDCF930E945617C82F8823DD
:1004B00059F00E940E2081FF07C02FEF4FEF6FEF22
:1004C00089E390E00E94A3158C2FCF91089582308C
:1004D000B8F46630A8F44F3098F450E09FE0699F7C
:1004E000400D511D1124FA019AE5899FE00DF11D7F
:1004F0001124EE0FFF1FE455FF4F8591949108954D
:1005000081E090E00895E3CF089581E00895FDCF64
:100510000895FBCF089581E00895F7CF0895F5CFB2
:100520000895FDCF089508950895FDCF0895089585
:10053000A6E0B0E0EEE9F2E00C941C2949835A836E
:100540009E8330910F0389819A81311117C03E81BA
:10055000332389F0222379F072D5182F682F8981EF
:100560009A814CD569817A81812F0E94660E2696E8
:10057000E3E00C94382953D5182FF4CF60D5698166
:100580007A81F3CFFC01262F4081518162817381F2
:1005900084819581CDCFCF93DF93EC0161E0F2DFD1
:1005A000BE01B5DF882349F061E0CE01EBDFBE017B
:1005B000B0DF8170DF91CF91089580E0FACF0F9383
:1005C0001F93CF93DF93EC0160E0DCDF8C01BE0171
:1005D000ABDFBE01C801A9DFDF91CF911F910F9161
:1005E000089521E030E0A90102C0440F551F8A950B
:1005F000E2F7CA013CC4CF93C82F81E090E00C2EF3
:1006000002C0880F991F0A94E2F70E94590C8C2FA0
:10061000E8DFCF91089581E00895FDCF0895FBCFE5
:100620000895CF93C82FDBD38C2FF7DF8C2FF7DF04
:100630002FEF84E39CE0215080409040E1F700C020
:100640000000CF91089581E0ECDF0C94602280E0FF
:10065000E8DF0C9484220F931F93CF93DF938C01D8
:1006600061E090DFEC01B80158DF811106C080E045
:10067000DF91CF911F910F910895B801CE0151DF05
:100680008823A9F3B801CE010E94B01F882379F313
:10069000B801CE010E94761E882349F3B801CE012D
:1006A0000E944E1E882319F3B801CE010E94331117
:1006B0008823E9F2B801CE010E9484118823B9F29F
:1006C000B801CE010E94660F882389F2F801858166
:1006D000882361F0C330FCE7DF07D9F050F4C1157F
:1006E000ECE7DE07A1F0C130DC47A9F0C80113DF59
:1006F000BFCFCB358CE7D80799F0CC35ECE7DE07D8
:1007000061F0CA35DC4791F70E941E0CEFCF9BDFEA
:10071000AECF0E94510C9BDFAACF0E94160CE6CFF1
:100720000E94200CE3CF19D080E00E94111DFFDE53
:100730000C94CE2181E008950895CF93DF93D82FB4
:10074000F9DFC82F882311F08D2FF6DF8C2FDF9172
:10075000CF9108950895F1CF08950E94FF1FFBCF18
:10076000CF930E94FF1FC82F80910A038C1771F04E
:10077000C0930A030E94302260930B0370930C0312
:1007800080930D0390930E038C2FE5DFCF91089596
:10079000ADE0B0E0EEECF3E00C941D2948875987FA
:1007A0006A877B878C879D8791116BD71F8286E034
:1007B000FE013896DE01119601900D928A95E1F7BF
:1007C0008D8181110CC029813A814B815C816D81C1
:1007D0007E818F81A6D62D96E2E00C943929CE0138
:1007E0000196D9DE8111EFCFF6CFFC0124812130B3
:1007F00019F48081918154C40895CF93C82F882320
:10080000B9F08238B9F40E940E2081FD11C089E34D
:100810000E942921C1D72FEF87EE93E0215080401D
:100820009040E1F700C0000089E30E944021B4D766
:10083000CF910895833899F40E940E2080FDF8CF5F
:1008400083E50E942921A8D72FEF81EE94E0215063
:1008500080409040E1F700C0000083E5E6CF843897
:1008600099F40E940E2082FDE3CF87E40E942921A3
:1008700093D72FEF81EE94E0215080409040E1F734
:1008800000C0000087E4D1CF8CEF8C0F813A68F470
:100890008C2F0E949E20882321F08C2F0E944021C3
:1008A0007BD78C2F0E942921C2CF80E28C0F883009
:1008B00040F4C77081E001C0880FCA95EAF7C4D63A
:1008C000B6CFEBE5EC0FE33040F4F0E0EA55FD4F36
:1008D000808190E00E942F20ABCFC85ACB3108F026
:1008E000A7CFEC2FF0E0EE0FFF1FE059FD4F808106
:1008F00091810E9456209CCF882309F446C08238FB
:1009000061F40E940E2081FF40C089E30E942921EA
:1009100043D789E30E9440213FC7833851F40E94A6
:100920000E2080FF32C083E50E94292135D783E560
:10093000F1CF843851F40E940E2082FF26C087E454
:100940000E94292129D787E4E5CF9CEF980F913A9F
:1009500008F390E2980F983048F4877091E001C056
:10096000990F8A95EAF7892F75D6D6CF9BE5980F10
:10097000933020F490E080E00C942F20885A8B3143
:1009800020F490E080E00C94562008951F93CF93BC
:10099000DF93182FEB0131DF209731F4812FACDF8B
:1009A000DF91CF911F9108958FE99FE00197F1F7B3
:1009B00000C000002197F0CF70E060E0893311F4AF
:1009C00060E570E0E3CF882311F03ED6E5C60895D8
:1009D000882311F03FD6E0C60895B0E0A0E0E3EF31
:1009E000F4E00C9416296C01D62FC72FFC01158159
:1009F000068102950F701ED6E82E8823E9F0E12EBD
:100A00001123D1F08C2F807F803461F080E28D0F34
:100A10008830F8F08C2F807E803221F4D230C8F0FC
:100A20000023B9F08091950482FF13C082E0D8D6EC
:100A300001D691E0E82EE926BC2EB2949FE0B922BF
:100A4000FBE0FB1580F1EB2DF0E0E65EF54D0C943C
:100A50000729E12CF1CF0C2F0F70C07F11F0029508
:100A6000007F112381F0002349F080E28D0F883050
:100A700010F0D11105C0802FE7D58ED68D2F40C044
:100A8000802FF2D5FACF8D2F37DF002361F080E27F
:100A90008D0F883010F0D11103C0802FDBD502C03C
:100AA000802FE8D579D6EB2DE850FF0B349708F06E
:100AB00048C10E94FF1F4FDECDB7DEB7E9E00C94BE
:100AC00032292C2F2F70F22EC07FC03219F0F294F1
:100AD00080EFF822DD2341F0D13081F1112309F4B8
:100AE00039C00023C9F0CACF8091950482FD10C09F
:100AF000112341F0FF2019F08F2DA6D54DD680E0AF
:100B00007CDED1CF80E0F8DEFF2069F28F2DC6CFEA
:100B1000112359F0011103C08F2D55DFC4CF0130CF
:100B200009F0C1CF8F2DC1D5BECF0111BCCF8F2D04
:100B30004FDF8F2DC5D58F2DAAD5B5CF112321F02D
:100B4000063008F0B0CFE8CF053008F0ACCF8F2DDD
:100B50003FDFA9CF0023D9F3D93349F43FEF87EE24
:100B600093E0315080409040E1F700C000008D2FAD
:100B7000C3DE99CF8C2F86958695837069F081307E
:100B800009F091CF8D2F9C2F9370111102C080E03E
:100B900090E00E94562087CF8D2F9C2F93701111CB
:100BA00002C080E090E00E942F207DCF8C2F8370C8
:100BB00081F5111178CF4D2F429546954770440F1E
:100BC000440F2D2F2F7030E0042E02C0220F331F50
:100BD0000A94E2F790E080E0D4FF09C08FE090E053
:100BE00002C0880F991F4A95E2F780959095C695A7
:100BF000C695C370822B932BC23039F040F4C130BC
:100C000011F03ED150CF35D14ECF41D14CCF2FD165
:100C10004ACF8695112311F08C2F8170882309F417
:100C200042CF4D2F429546954770440F440F2D2FCC
:100C30002F7030E0042E02C0220F331F0A94E2F717
:100C400090E080E0D4FF09C08FE090E002C0880F00
:100C5000991F4A95E2F780959095C695C695C37001
:100C6000822B932BC23039F040F4C13011F063D1A4
:100C70001ACF5AD118CF66D116CF16D114CFCF7054
:100C8000112321F08C2F24D18D2F47CF8D2FA0DE63
:100C90008C2F2CD108CFD23F39F160F4D03FB9F07E
:100CA000D13F81F0112309F43CC00111E7CE8C2F14
:100CB0008F711EC0D33FF1F0D43FA1F7809195040E
:100CC00082FD20C08C2F8F71112319F311C01123C5
:100CD00039F0053008F0E7CE8C2F8F7117D1E3CEB5
:100CE000063008F0E0CEF8CF8C2F8F711111D1CFE4
:100CF000EFD0D9CE112321F08C2F8F71DFD0D3CE3E
:100D0000DAD0D1CE112329F063E08C2F8F7151D529
:100D1000CACE81E065D5023008F4C5CE82E060D548
:100D2000C2CE002359F0D93309F021CFEFEFF7EE0F
:100D300023E0E150F0402040E1F717CF8C2F8F7176
:100D4000A8CFEE2009F4B8CE71D480FDB5CEF6015F
:100D5000158266D4BDD0C60117D062D4C7D0ACCE40
:100D60000F931F93CF93DF93EC01688179818D817D
:100D7000A0D18C01EED07AD0B801CE012EDEDF9169
:100D8000CF911F910F910895CF93DF93EC018C8148
:100D9000882381F0CE015FDC81110FC04BD4882302
:100DA00049F08D81882331F08091950482FF02C043
:100DB00082E016D5DF91CF910895CE01D1DFCE012B
:100DC000FEDBF8CF90E080E00E942F2090E080E0F2
:100DD0000E94562056D4E0C40E945721F3CF41D43C
:100DE000FBCF92959F70963091F058F4925F9F7070
:100DF000923058F4803F19F030F4883E30F481E0AE
:100E000008959A5FF4CF843FD1F380E00895883E3F
:100E1000B0F3813FD1F7F3CFFC012481222321F0ED
:100E2000808191813DD1DDCF80E00895A6E0B0E0E2
:100E3000ECE1F7E00C941D292696E2E00C943929A8
:100E4000A7E0B0E0E6E2F7E00C941D292796E2E087
:100E50000C9439290895FECF0895FDCF0895FADF47
:100E6000FCDF909343038093420308950895F7CFE6
:100E700008952091420330914303822B932BEFCFAF
:100E8000209142033091430382239323E8CF2091A2
:100E900042033091430382279327E1CFDBCF0895AC
:100EA000FDCF0895D7CF0895FDDFFADF909341037A
:100EB00080934003089590E080E0F6CF21E030E099
:100EC000A90102C0440F551F8A95E2F7CA01ECCF71
:100ED00021E030E002C0220F331F8A95E2F78091B3
:100EE000400390914103822B932BDECF21E030E031
:100EF00002C0220F331F8A95E2F72095309580912A
:100F000040039091410382239323CECF21E030E030
:100F100002C0220F331F8A95E2F78091400390911F
:100F2000410382279327C0CF209140033091410392
:100F3000822B932BB9CF2091400330914103822320
:100F40009323B2CF2091400330914103822793270E
:100F5000ABCF0895262F277091E001C0990F2A95F5
:100F6000EAF723E0769567952A95E1F7660F771FF4
:100F7000660F771FFA01E60FF71F50E040E0682F79
:100F800070E08191DF0111979B01042E02C036951C
:100F900027950A94E2F721702195282729232827ED
:100FA0002C934F5F5F4F4430510559F70895A82F98
:100FB000A77023E0969587952A95E1F7880F991FEA
:100FC000880F991FFB01E80FF91F50E040E080E017
:100FD000219130E00A2E02C0369527950A94E2F757
:100FE00021703327042E01C0220F0A94EAF7822BC6
:100FF0004F5F5F4F4430510559F70895262F9630C3
:1010000068F48F3058F4682F70E08FE0989F600D7F
:10101000711D112440E153E0822F9CCF0895292FA8
:10102000963058F48F3048F490E060E173E03FE090
:10103000239F800D911D1124BACF80E00895B0E068
:10104000A0E0E5E2F8E00C9416297C010091400351
:10105000109141038091420390914303082B192B77
:10106000CFE0D0E0CC24C394D12CBC2EC6010C2EF2
:1010700002C0880F991F0A94E2F780239123892BDD
:1010800049F4219790F7B12C8B2DCDB7DEB7E9E06D
:101090000C943229B7018C2F24D6019791F3F4CF09
:1010A000CF93DF93EC01CBDFBE011BD6DF91CF9155
:1010B00008951F93CF93DF93EB0190910F03992332
:1010C00031F0CB01EDDFDF91CF911F91089588239F
:1010D00051F0CB01B4DF182F682FCE018FDFBE0196
:1010E000812FFFD5F0CFCB019ADF182FF8CF1F93B8
:1010F000CF93DF93C091440317E0809145038C1395
:1011000004C0DF91CF911F910895D0E01C9FF001A2
:101110001D9FF00D1124EA5BFC4F2081318142813B
:1011200053816481758186818BDE2196C770E5CFFE
:1011300020917E0330917F03409180035091810381
:1011400060918203709183038091840379CECF9361
:10115000DF9380918403807F09F04BC080918303EB
:10116000882309F446C0E091440350914503C0919F
:101170007F03D0917E03609180037091810347E0EB
:101180005E17B9F18E2F90E0E49FF0011124EA5B25
:10119000FC4F2481222381F1489FF001499FF00DEB
:1011A0001124DF01AA5BBC4F11962C9111972C13CF
:1011B00023C02C912D1320C015962C911597211129
:1011C0001BC012962D913C91261B370B283C3105F4
:1011D00098F4809184038F70806180938403E45B32
:1011E000FC4F80818F70806180838EE793E0CCDD3F
:1011F0007EDFDF91CF910895FC013196E770C0CF7B
:10120000482F209144039091450357E0291302C0D1
:1012100080E0089530E0529FF001539FF00D1124BB
:10122000EA5BFC4F8181681306C08081481303C0CC
:1012300085818111EECF2F5F3F4F2770E7CFA4E16B
:10124000B0E0E5E2F9E00C9413298C0186E0F801A6
:10125000DE011F9601900D928A95E1F7F8018481D5
:10126000E5809EE7A92E93E0B92E9091820391111B
:101270001AC08823A9F0EE2089F0C801CDDDF82E30
:10128000882361F087E0F801D50101900D928A95DD
:10129000E1F7C501AADA5BDF4BDF59C0C80174DD95
:1012A000FF24F39454C0C080D18082809380F0905A
:1012B00083032091800330918103A401421B530BCF
:1012C000FF2009F4E9C0483C510508F09CC0882380
:1012D00009F43DC090917F0380918403282F207FE3
:1012E00009F056C09D1114C090917E03C91210C020
:1012F000E11048C08F7080618093840319DF8EE70E
:1013000093E042DD80918403F8018683F12C1FC0B5
:10131000E11038C06D2D8C2D73DF6D2D8C2D70DF9D
:10132000E82E8111F3CFCF86D88A8F859889B8DED1
:10133000292F22952F70243078F49F702230A0F04E
:101340009923B1F0F8019681907F91F4FE2C8F2DB6
:101350006496ECE00C942F292A5F2F70223060F005
:10136000C80112DDEF2CF2CF992311F0882371F31D
:10137000805E883058F3F4CF803F40F3815F833044
:1013800078F7E4CF80918403816080938403BECF9B
:101390009D1112C090917E03C9120EC0E1100CC0C5
:1013A0008683C801F1DC87E0F801AEE7B3E0019085
:1013B0000D928A95E1F770CFC8012EDD882309F4DC
:1013C0006DCFEE2009F46ACF80918403803280F0E3
:1013D00020917E0330917F03398728879B868A86F8
:1013E000909182039C871D868E87CE010896CCDC67
:1013F00087E0F801AEE7B3E001900D928A95E1F73E
:10140000A6DE96DE4DCF90918403292F207F89F4AC
:10141000682D9A8A898AA6017A899E2D07DD8EE732
:1014200093E0B2DC87E0F50111928A95E9F780DE5E
:101430006DCF882309F48BCF80917F038D110FC06E
:1014400080917E03C8120BC0E11009C09683C801C9
:101450009BDC87E0F50111928A95E9F778CFC80106
:10146000DBDC882309F41ACFEE2009F417CF809132
:101470008403803208F4BCCF20917E0330917F0337
:101480003A8329839C828B82909182039D831E8262
:101490008F83CE010196ABCF483C5105A8F5882338
:1014A00009F4FECEFE2CEE2009F4F8CE80917F03E5
:1014B0008D111EC080917E03C8121AC080918403D2
:1014C00080FD0DC0982F907F51F08683903F09F4E6
:1014D00068CF982F907F905F8F70892B61CF87E0C6
:1014E000F801AEE7B3E001900D928A95E1F72FCFB6
:1014F000C80192DC81117CCF80918403816080934C
:101500008403C80141DC23CF682D9A8A898AA60109
:101510007A899E2D8BDC87E0F50111928A95E9F797
:10152000BBCEAEE0B0E0E7E9FAE00C941C292887D6
:1015300039874A875B876C877D878E87CE010896BF
:101540007EDE8823A9F06C85662339F028853985ED
:101550004A855B857D858E8573DC17E08091440329
:101560009091450389133BC02E96E3E00C943829F3
:1015700087E0FE013896DE01119601900D928A9562
:10158000E1F78C85882349F32091450330E0C901B8
:10159000019687709927409144034817190691F0E6
:1015A00097E0929FD001939FB00D1124AA5BBC4F8E
:1015B000FE01319601900D929A95E1F780934503D3
:1015C00096DDCBCF0CDC109245031092440387E0EC
:1015D000EEE7F3E0DF011D928A95E9F7BECF819F28
:1015E000C00111248A5B9C4F2ADE882309F4BCCFFA
:1015F000E09144031E9FF0011124EA5BFC4F20811F
:1016000031814281538164817581868119DC8091A9
:10161000440390E0019687709927809344039ECFFE
:101620008091AD0386958695869508958091AD034A
:10163000877008959091AD03977081E009F480E080
:1016400008958091D90308959091D903892B8093AF
:10165000D903089580959091D90398239093D90345
:1016600008951092D90308959091D803892B8093FF
:10167000D803089580959091D80398239093D80328
:1016800008951092D80308950895FECF089590917B
:10169000AE03292F282329F0809589238093AE0358
:1016A000F4CF08950895FECF08959091AF03292FA8
:1016B0002823281721F0982B9093AF03F4CF089597
:1016C0009091AF03292F282329F0809589238093B7
:1016D000AF03E9CF08958091AF03882321F01092E2
:1016E000AF0380E0E0CF0895CF93C091D9038091FC
:1016F000D803C82B8091AF03882329F0C82B0E9400
:101700007D208111E8DF8C2FCF910895CF93DF9357
:10171000C0915302D0915402E7DF8883C0915302F5
:10172000D091540248E050E065EA73E0CE010E9497
:101730009929892B59F088E0FE01A5EAB3E00190D0
:101740000D928A95E1F7CE010E941020DF91CF9192
:101750000895CF93DF93C0915102D0915202C4DF1C
:101760008983C0915102D091520240E250E065E875
:1017700073E0CE010E949929892B59F080E2FE0185
:10178000A5E8B3E001900D928A95E1F7CE010E94A1
:101790001D20DF91CF9108950E94F81F882329F022
:1017A0008091940487FF01C0D4CFB0CF0895FECFBD
:1017B00008959091950492FF0EC098E0899F900142
:1017C0001124622B6093AD0383DB8091AD0386957A
:1017D00086958695ECCF7CCB1092AD0380E0E7CF69
:1017E0009091AD03809589238093AD03282F2770B6
:1017F00059F4891749F09091950492FF05C0869598
:101800008695869573DBE8CF08959091950492FBB9
:10181000222720F9281749F080FB92F9909395042C
:1018200084E994E04AD082E0DBCF0895809195046A
:1018300082FB882780F991E08927E7CF81E0E5CF17
:1018400080E0E3CF60E070E0CB01ABC360E070E02C
:10185000CB01A1D3F7CFA3E0B0E0E1E3FCE00C942F
:101860001D2946D351D31B82CE01039664D381E058
:1018700090E0909343038093420369D31A821982C4
:101880008A8184618A83CE01019672D30E94651594
:10189000DDDF0E945E152396E2E00C943929DBCF50
:1018A000089538C3089525C308953AC3089549C3D8
:1018B00008954DC3089550C308955AC308955FC352
:1018C000089563C3089573C30895A6E0B0E0EBE6FE
:1018D000FCE00C941B290E9424228C018091DA03E5
:1018E0009091DB038017910781F019821A820E9480
:1018F0002422682F49815A81792F80E090E00E944C
:10190000C8031093DB030093DA032696E4E00C94FB
:1019100037290E9430226093EC037093ED0380938B
:10192000EE039093EF036093E8037093E9038093D1
:10193000EA039093EB03089508950895FDCF089569
:101940000895FEDFFBCF0895FECF08950895FEDFD2
:10195000FBCF84E69FE082D4F0DFF3CF81E00895EF
:10196000FDCF0895FBCF0895089508950895FCDFF5
:10197000FCDFFCCF98DF811101C091DF80EF93E0A5
:1019800094DF84E994E097DF0E944C1E90DF6FDAC9
:10199000809140039091410383CA0E941B22C5D3CA
:1019A000E9DF0E94AA030E94B71CE4E9F4E0808109
:1019B00080688083CF0181DFCACFA6E0B0E0E3EE8C
:1019C000FCE00C941129CCDF811109C07EDF0E945C
:1019D000521B0E94B0032696EEE00C942D29B7D33B
:1019E0002CED822E23E0922E640110E0F601E190AE
:1019F000F1906F01812FE6D21F5F163009F44AC0C3
:101A0000E816F90699F38091F00381FDE4D2AADF8C
:101A1000682E10E0812FD6D27C01F401A190B19004
:101A20004F018A159B0589F100E0CC24C394D12C89
:101A3000AE24BF24C5018C219D21892BE9F0772498
:101A40007394C7018C219D21892B09F4712C662088
:101A500071F009831A830E942422682F8B839C8350
:101A600049815A81792F81E0972D0E94C803472D23
:101A7000602F812F0E94CE160F5FCC0CDD1C0F3023
:101A8000C9F6F4013297F182E0821F5F163011F639
:101A900040DF9DCFE816F90609F0B5CF97CF1F9329
:101AA000CF93DF9320D1EC01C11580E5D807F0F585
:101AB000C11580E4D80708F09AC0C03ED10520F5D2
:101AC000CD3CD10508F082C0C83AD10578F4C53ABA
:101AD000D10508F073C0C130D10519F1209709F183
:101AE000C430D105F0F4D0E0C0E01BC0C33CD10548
:101AF000D0F7C85AD0E0CC0FDD1FC755DD4F099095
:101B0000D881C02DD4640DC0C11580E2D80708F07B
:101B1000CDC0C11581E0D80708F05AC0C83ED10534
:101B200010F7CE01DF91CF911F910895C03682E565
:101B3000D80718F5C03482E5D80708F068C0C0326D
:101B400082E5D80708F05CC0C11582E5D80708F423
:101B500093C02C2F2695269580E2289F9001112472
:101B60008C2F8370C1E0D0E002C0CC0FDD1F8A95BE
:101B7000E2F7C22BD32BDD68D4CFC03A82E5D80779
:101B800060F4C03882E5D80708F456C0CF71D0E0C1
:101B9000DC2FCC27C46FD06AC4CFC03C82E5D80705
:101BA00008F45FC0C03E82E5D80708F09CCFDC2F68
:101BB000CC27CC27DF71C06FD06AB3CFC55AD0E035
:101BC000C152DD4FC881D0E0D064ABCFD065A9CF82
:101BD0008D2F2BD1182FCE01992785D0C12FD0E082
:101BE000DC2FCC27CC27DF71C82BD92B9ACFCE0185
:101BF000992779D0CC27DF70C82BD92BD06A91CF09
:101C0000CF71D0E0DC2FCC27C16FD06A8ACF2C2FC8
:101C100026952695277080E2289F900111248C2F0D
:101C20008370C1E0D0E002C0CC0FDD1F8A95E2F7DF
:101C3000C22BD32BDC6875CF2C2F269526952770C9
:101C400080E2289F900111248C2F8370C1E0D0E0A6
:101C500002C0CC0FDD1F8A95E2F7C22BD32BDA68C6
:101C600060CF8C2F8F71E1D0C82FD0E0DC2FCC2734
:101C7000CC27DF71D06255CF8C2F8F71D6D055E035
:101C8000D695C7955A95E1F7CF70D0E0DC2FCC27D9
:101C9000282F30E084FF06C044E0220F331F4A950E
:101CA000E1F73327C22BD32BD0693BCF8D2F8F7118
:101CB000BCD0182FCE01992716D0C12FD0E0DC2F31
:101CC000CC27CC27DF71C82BD92BD4CF462F763029
:101CD00028F46F3018F4672F0C94830290E080E0B2
:101CE0000895F4DFDCCE82389105B9F1B0F4813388
:101CF000910509F47DC048F48932910509F46DC05D
:101D00008A32910509F47BC008958533910509F461
:101D10005FC08933910509F10895833E9105D9F19A
:101D200038F4803E910529F1823E910579F10895BC
:101D3000863E9105D9F1873E910509F43EC0843E67
:101D4000910541F52091950421FF24C080919404D0
:101D500084FD19C087EE90E00895209194042370CB
:101D600009F05AC02091950423FF14C089E290E045
:101D700008952091940420FD38C03091950430FFDF
:101D800009C024FF43C090E080E0089520919404AE
:101D900022FDF7CF08952091940422FD3AC030919E
:101DA000950430FD39C024FFF5CFEDCF2091940488
:101DB00023FFF0CF24FDE7CFCDCF2091940423FD66
:101DC0002EC03091950431FFEECF84EE90E008955F
:101DD0002091940425FFDECFC9CF2091940425FDE6
:101DE00021C02091950423FFD5CF89E390E0D2CF85
:101DF0002091940426FFCECF8AE290E008952091AE
:101E0000940426FFC7CF81E390E0089583EE90E02D
:101E1000089582EE90E0089580EE90E0089586EEB9
:101E200090E0089585E390E008959091940492FFE6
:101E300010C041E0282F2471243009F040E031E047
:101E4000282F2871283009F030E0431711F02CE0DA
:101E5000822793FF10C041E0282F2471243109F01C
:101E600040E031E0282F2871283109F030E0431795
:101E700011F02CE082273091950430FF10C051E022
:101E8000282F2171213009F050E041E0282F2871DE
:101E9000283009F040E0541711F029E0822731FF83
:101EA00010C041E0282F2171213109F040E031E0DC
:101EB000282F2871283109F030E0431711F029E06C
:101EC000822794FD877E089580E00895CF939C013A
:101ED000205E3245C1E02032310538F4FB01C58176
:101EE000C11103C08F710E94FB028C2FCF91089506
:101EF000089590E080E00E94C72921E0833E9E4F34
:101F000009F020E0822F089563EE7EEF90E080E0FC
:101F10000C94F5296FEF7FEF90E080E00C94F529A9
:101F2000CF93DF93EC0182E090E00E94BF29888389
:101F3000DF91CF910895FC01608182E090E00C94E4
:101F4000DB2983E090E00E94BF2990E00895682F8C
:101F500083E090E00C94DB29CF93DF93EC0184E0E5
:101F600090E00E94C72999838883DF91CF910895DB
:101F7000FC016081718184E090E00C94F52948E0D7
:101F800050E067E170E00C94AF2948E050E067E171
:101F900070E00C94CC29AB01BC018FE090E00C9474
:101FA000ED29AB01BC0183E190E00C94ED29682F91
:101FB0008EE090E00C94DB290895FECF08950895FB
:101FC000FECF0895E82FF0E0EE0FFF1FEE55FB4F18
:101FD000808191810895089580EA8A95F1F70895A6
:101FE00000C00895F9CF0895F894E82FE295EF70B6
:101FF000F0E031A1282F2F7081E090E001C0880F20
:102000002A95EAF7982F9095932391A392A1892B73
:1020100082A3789408950F931F93CF93DF93C1EF1A
:10202000D2E089918F3F09F0DFDF82E0C73FD80718
:10203000C1F7C2EED2E001EF12E089918F3F09F0C3
:10204000D3DF0C171D07C9F7DF91CF911F910F91B7
:102050000895AF92BF92DF92EF92FF920F931F937A
:10206000CF93DF938C01D62EC62FD0E0CE018F50B8
:102070009D4F7C01FC0120812F3F09F449C0F89459
:10208000E22FE295EF70F0E031A12F7081E090E057
:1020900001C0880F2A95EAF7932F982B91A392A15C
:1020A0008095892382A378949BDFE2EEF2E041E001
:1020B00050E0B12CA12C21912F3FA1F1A22FA2958C
:1020C000AF70B0E090968C9190E02F7002C0959523
:1020D00087952A95E2F780FD25C0CA01A82AB92A6A
:1020E000440F551F82E0E13FF80729F7F70180818F
:1020F0008F3F09F079DF61E0A114B10409F460E0D9
:102100008D2D70DFCC0FDD1FC00FD11FB982A882CB
:10211000DF91CF911F910F91FF90EF90DF90BF90D3
:10212000AF90089590E080E0D9CF75DF8CE0E2EACF
:10213000F4E0DF01982F1D929A95E9F7E6E9F4E0C3
:10214000DF011D928A95E9F786E039D036CFACE001
:10215000B0E0EDEAF0E10C941A298E010F5F1F4FF9
:102160008CE0F80111928A95E9F7F12C6F2DC801E6
:1021700070DFF394F6E0FF12F9CF4CE050E0B801C5
:1021800086E994E00E94992921E0009709F420E073
:10219000892B41F08CE0F801A6E9B4E001900D92A2
:1021A0008A95E1F746E062EA74E086E994E008D0B7
:1021B000182F06DF812F2C96E5E00C943629089520
:1021C000B0E0A0E0E6EEF0E10C9417296C017B0191
:1021D000042FC22F222379F081E08093F3030E9421
:1021E00024229093F2038093F10380E0CDB7DEB711
:1021F000E8E00C943329D091F303DD23B1F380910F
:10220000F1039091F2030E94D021059770F310E042
:10221000000F111FA801B601C7010E949929892B3F
:1022200031F0A801B601C7010E94A629CD2F109256
:10223000F3038C2FDBCFC1CB08950E94E9210E94CC
:10224000B42387DB0E94CC23A8DB0E94D5230E9405
:10225000D823F1DF0E94D9238ADBF9CF90930903B9
:102260008093080308950F931F93CF938C01FB0174
:10227000C581CC2309F446C0E4D98272F801E0524A
:10228000F847EB30F10538F4EA5DF54D0C94072979
:102290000E941C1DC0E08C2FCF911F910F910895BB
:1022A000882329F00E946E1DF5CF8823D9F30E9460
:1022B000621DF0CF882329F00E949D1DEBCF88235B
:1022C000D9F30E94901DE6CF882329F00E94BB1D00
:1022D000E1CF8823D9F30E94AC1DDCCF882329F0FD
:1022E0000E94D91DD7CF8823D9F30E94CA1DD2CF0F
:1022F000882329F00E94F11DCDCF8823D9F30E94B5
:10230000E51DC8CFC1E0C7CF1F93CF93DF93EC018A
:10231000FB01158111110FC094D98272FE01E054A6
:10232000F847ED30F10508F043C0EF5CF54D0C9433
:1023300007290E942B1D812FDF91CF911F910895B6
:102340000E943B1DF8CF0E941C1DF5CF882329F069
:102350000E946E1DF0CF8823D9F30E94621DEBCF3F
:10236000882329F00E949D1DE6CF8823D9F30E947F
:10237000901DE1CF882329F00E94BB1DDCCF88236C
:10238000D9F30E94AC1DD7CF882329F00E94D91D14
:10239000D2CF8823D9F30E94CA1DCDCF882329F03C
:1023A0000E94F11DC8CF8823D9F30E94E51DC3CF39
:1023B00011E0C1CFEF92FF920F931F93CF93DF9362
:1023C0009B01682F31110EC0442329F0E82FF0E063
:1023D000EC5EFD4F6491762F862FCDB7DEB7E6E039
:1023E0000C943529C32FD0E0E82FF0E0442321F0EE
:1023F000EC5EFD4FE491F0E046E0249FC001112423
:102400000FEF10E0B8010E94A228AB01822F90E0EC
:10241000880F991F25E5249FB001259F700D112479
:10242000861B970B982F990F980FB8016C1B7D0B8B
:102430006E9FD0016F9FB00D7E9FB00D11248B2F2A
:10244000939F90011124232F3327B801621B730B34
:102450006E9F90016F9F300D7E9F300D112478018B
:10246000E91AF108EC9EB001ED9E700DFC9E700D16
:102470001124672F7727061B170B0E9FE0010F9F74
:10248000D00D1E9FD00D11247D2F9E2F423051055F
:1024900099F048F44115510569F04130510581F03A
:1024A0007B2F832F07C04430510569F080F0463000
:1024B0005105B1F7692F91CF9B2F8D2F7E2FFACF2A
:1024C0007E2F932FF7CF9D2F7B2F8E2FF3CF732F40
:1024D0009B2FFBCF41E06ECF282F269F020E20E0DE
:1024E000211D1124822F089530E020E0869F080EE0
:1024F000211D969F200D311D1124290F311DC90169
:102500000895AC018230910508F408959FEF413E93
:102510008EE1580740F49A0195E0369527959A95F3
:10252000E1F798E0920F61E0E62FE90FFF27FF1F28
:102530009F0135952795822F229FF001239FF00D53
:10254000F00D11244E175F0738F49FEF920F961786
:1025500058F78FEF860F08952F3FE9F361E0620F80
:10256000F6CFE82F86FDE0952E2F2F7086FD2F5F8A
:10257000E695E695E695E670F0E0E950FD4F91812D
:10258000929F902D212D112492959F702295207F4E
:10259000922B2081920F87FD919580E8890F0895F5
:1025A0001F93CF93DF93D62FC72F182F822F869597
:1025B000D8DF805887FD8195612F880F8DDF6D2FC3
:1025C0007C2FDF91CF911F910895622F0895E42F02
:1025D000F0E0EE0FFF1FE25AFE4F6081621B08958C
:1025E000E42FF0E0EE0FFF1FE15AFE4F6081621B07
:1025F0000895322F50E0FA01EE0FFF1FE15AFE4F0F
:102600009081905297FD9195440F551FFA01E25A1F
:10261000FE4F2081231B330B290F311D97FD3A9567
:10262000620F0895EF920F93972F23E0029FB0015E
:102630001124759567956E0D792F0F91EF90089580
:102640000F93CF93DF93D72FC82F47FD419588E392
:1026500090E0841B910947FD9395889FB001899F65
:10266000700D700D1124229FC001239F900D900DBD
:102670001124860F971F45DF982F990F890F682F18
:10268000600F7D2F8C2FDF91CF910F9108950F93C5
:102690001F93522F10E0F801EE0FFF1FE15AFE4F7B
:1026A000A081A052BB0B9D015203F001539FF00D7E
:1026B0001124000F111FD801A25ABE4F0C910057D0
:1026C000110B40039001419F300D11242E0F3F1F2D
:1026D00037FF02C021583F4F220F232F221F330BF9
:1026E000620F1F910F9108950F931F93522F10E0C7
:1026F000F801EE0FFF1FE15AFE4FA081A052BB0B65
:102700009D015203F001539FF00D1124000F111F82
:10271000D801A25ABE4F0C910057110B40039001F3
:10272000419F300D11242E0F3F1F37FF02C0215C47
:102730003F4F96E0359527959A95E1F7620F1F91E7
:102740000F910895CF93DF93D62FC72F682F842F33
:102750008095C2DE6D2F7C2FDF91CF9108951F935E
:10276000CF93DF93C62F172FD82F60E4842F809547
:10277000B3DE682F6C0F712F8D2FDF91CF911F91DA
:102780000895EF92FF920F93970195E0099F200D16
:10279000311D11242F3F310519F010F02FEF30E0DB
:1027A0002095382F320F08F43FEF832F0F91FF90C1
:1027B000EF900895EF92FF920F931F930E0D1F2D30
:1027C000111DF90137FF03C0F195E195F10924E0EE
:1027D000EE0FFF1F2A95E1F7EF3FF10519F014F016
:1027E000EFEFF0E09A0157FF03C0319521953109D1
:1027F00094E0220F331F9A95E1F72E173F070CF450
:10280000F901E00FF11FEF3FF10519F010F0EFEFC4
:10281000F0E0E095282F3E2F230F08F42FEF822FB2
:102820001F910F91FF90EF900895EF92FF920F93F9
:10283000972F093438F4B701601B71096F3F710598
:1028400019F010F06FEF70E0485F5F4F41315105B4
:1028500040F0A901485F5F4F4131510510F06FEF23
:1028600070E06095482F460F08F44FEF842F37FF34
:1028700002C02D5F3F4F359527953595279560917F
:10288000AF04620F792F0F91FF90EF900895EF92B0
:10289000FF920F939701201B31092F3F310519F04B
:1028A00010F02FEF30E0322F3095482F430F08F40F
:1028B0004FEF842F620F0F91FF90EF900895EF92EA
:1028C000FF920F939701201B31092F3F310519F01B
:1028D00010F02FEF30E02095382F320F08F43FEF43
:1028E000832F0F91FF90EF9008959091F603892B1D
:1028F0008093F6030895FC019B01AC0197FF04C08F
:1029000044275527481B590BBA01620F731F37FD27
:102910000FC0241B350BC901A5E0880F991FAA958C
:10292000E1F70E94B62880E2861BF7FD81950895A5
:10293000CB0165E0880F991F6A95E1F7BA01621B28
:10294000730B0E94B62880E6EFCFEF920F93CF93E0
:10295000DF93D72FC82FC9010E19009729F480E8FB
:1029600057FD04C080E002C0BA01C5DF602F681BBC
:102970007D2F8C2FDF91CF910F91EF9008950F93C2
:10298000CF93DF93D72FC82FC901009729F480E890
:1029900057FD04C080E002C0BA01ADDF602F680FB0
:1029A0007D2F8C2FDF91CF910F91089593CD0895B6
:1029B000B0E0A0E0EEEDF4E10C941029782E662E44
:1029C000862F90E02FE0729E80011124F801EC5FC9
:1029D000FE4FE80FF91FC081CF3FA9F1B12CA12C08
:1029E000812CD0E09E01220F331FA901425A5E4F75
:1029F0006A01E901C15ADE4F0C5D1B4F080F191F18
:102A00007501912C88E2582EF701EC5FFE4F808112
:102A10008F3F59F078101CC069101AC0F80120814E
:102A200030E2230F08F42FEF208393944FEFE41A42
:102A3000F40A5FE09512E8CF83948FE0A80EB11CF2
:102A4000E6E08E12DDCFCDB7DEB7EFE00C942C2997
:102A500090E0F6012081FC01EE0FFF1FE25AFE4FCD
:102A60003081231B330B4881880F991FFC01E15AE9
:102A7000FE4F8081481B550B229FB001239F700D94
:102A8000700D1124449FC001459F900D900D11249D
:102A9000860F971F36DD893240F6252D382F231BF0
:102AA00008F420E0F701EC5DFB4F213108F020E154
:102AB0003081320F08F43FEF3083B7CF8EEA94E0D5
:102AC0000E94610C1092F6030895EEEAF4E081E1B1
:102AD000808380916D0290916E02A0916F0281833C
:102AE0009283A3838FE784838FEF8583CF010E9436
:102AF000610C1092F603089580E008950F931F93E0
:102B0000CF93DF93C82FD62F8A01F6DF9FE0C99FAE
:102B1000B00111246C5F7E4F6D0F711DFB01908120
:102B20009F3F29F0F801E80FF11D90838F5FDF913F
:102B3000CF911F910F910895E0910503F091060345
:102B4000099508950895FF920F931F93CF93DF93F4
:102B5000162F042FF22EC0910103D0910203F2DF51
:102B60002F2D402F612FFE010995CDB7DEB7E5E08F
:102B70000C9436290F931F93CF93DF93C82FD0E087
:102B8000FE01E050FE4F80816823D1F10091B00436
:102B90001091B1044091AF04E42FF0E060915D0228
:102BA00070915E0285E098E0689F9001699F300D0A
:102BB000789F300D1124275E394C30935E022093AC
:102BC0005D02CF018C549F4F68E671E00E94B628E9
:102BD0008E1B9F0B97FD03969595879595958795E9
:102BE000230F53E0259F90011124642F839F600DD4
:102BF0001124702F812FDADE472F282FCE01A3DF7B
:102C0000DF91CF911F910F910895E0910303F0910F
:102C1000040309950895A8E0B0E0E1E1F6E10C9421
:102C20001029FC011091B10423E0129F70011124BE
:102C3000F694E794F694E7945E2C812E912C8FEF16
:102C400090E0B4010E94B628762E8281882369F034
:102C500040E060E080E0D9DFE4E2F4E08AE5DF0113
:102C60001D928A95E9F71092F5038091F4038F5F26
:102C70008093F40384E2A82E84E0B82E612C8E1891
:102C80009F08650100E08091F503802B09F06AC080
:102C90000E948B29853595400CF064C0F5011083A6
:102CA000AE014F5F5F4F662D802F28DF8823C1F074
:102CB000F6012081E981F0E0521608F062C030E0B0
:102CC0002E193F092E9DC0012F9D900D3E9D900D08
:102CD0001124B4010E94A228262F412FCF0133DFF7
:102CE0000F5FFFE0CF0ED11C063069F663942FEF23
:102CF000A21AB20A8FE06812C4CF8091F403871140
:102D000002C01092F4038091F5038F5F8D3108F4B7
:102D100042C01092F50340E654E025E063E374E01E
:102D20003FEF310FFA0184E294E0253039F4DC0101
:102D3000A55BBF4F0C91101301C03C93A081A1175C
:102D400010F030831787019631966817790769F775
:102D500021504F5051092111E5CF80E02896EFE036
:102D60000C942C29D6018C91882309F499CF8117D2
:102D700008F096CF9091F403971192CF81508C93E5
:102D80008FCF129FC0011124B7010E94A228462FA5
:102D900020E060E0A3CF8093F503DFCFA8E0B0E0B0
:102DA000E4EDF6E10C941529C82EB62EA42E0E944F
:102DB000AE0C882309F455C0D12CAA2039F0AE01FD
:102DC0004F5F5F4F6B2D8C2D99DED82E0D2D10E0AF
:102DD0008091F703800F912F911D09976CF188E086
:102DE00090E07C01E01AF10AB80168507C4FA7011D
:102DF00088EF93E00E94A629B80160507C4FA7019C
:102E000080E094E00E94A629A701440F551FB80155
:102E1000660F771F605F7B4F80E194E00E94A629D8
:102E2000B801685F7B4FA70188E094E00E94A62963
:102E300088E08D198093F7031091F703DE01119656
:102E400040E0842F810FD41210C08093F703AA2092
:102E500041F08091AE048C7F883319F46B2D8C2D5A
:102E6000A7DD2896EAE00C9431295D91252F30E00A
:102E700090E0BC0169507C4FF901EE0FFF1FE25A50
:102E8000FE4F0081FB010183220F331FF901E15A3C
:102E9000FE4F2081FB012187518B880F991FFC0178
:102EA000E950FC4F128E118E4F5FCBCF81E0089519
:102EB000FDCF0895FDDF0C94530291E1899F802D91
:102EC0001124980F923508F091E50895B0E0A0E044
:102ED000ECE6F7E10C9411295C014B01FC018081C7
:102EE000ECDFC82F192F6091B20466958091B6046B
:102EF0009091B704F9DAF82ED0E0C11748F081E0DC
:102F0000113508F080E0CDB7DEB7EEE00C942D2946
:102F1000FE01E050FE4F8081F50191818923A9F1E6
:102F2000CE01880F991F8C5F9E4FFC01E65AFF4F20
:102F30002081422F4057550B6A01855A9F4FFC0153
:102F40008081282F2052330B3901449F9001459FE7
:102F5000300D300D1124669CC001679C900D900DC2
:102F60001124820F931FCDDA082F6091AF04709166
:102F7000B0048091B104EF2C9301A601F4010995EE
:102F800015DD472F282FCE01DEDD2196B6CF62E179
:102F900073E19CCF65EA74E199CFB0E0A0E0E3ED86
:102FA000F7E10C9416296C017B01FC01808185DF1F
:102FB000C82F192F6091B20466958091B604909144
:102FC000B70492DAB82ED0E0C11748F081E011358D
:102FD00008F080E0CDB7DEB7E9E00C943229FE01BD
:102FE000E050FE4F8081F60191818923F9F0CE01F6
:102FF000880F991F8C5F9E4FFC01E55AFF4F20817F
:103000002052330B865A9F4FFC0140814057550B8D
:103010006091AF047091B0048091B1040B2DF70161
:103020000995C4DC472F282FCE018DDD2196CCCF0A
:1030300060E273E1B2CF6FEB74E1AFCFB0E0A0E03C
:10304000E4E2F8E10C9417297C018B01FC018081FA
:1030500034DFC82FD92E6091B2046695669521E0C1
:10306000620F08F46FEF8091B6049091B7043CDAD8
:10307000C82ED0E0CD1550F081E090E59D1508F404
:1030800080E0CDB7DEB7E8E00C943329FE01E050D4
:10309000FE4F8081F7019181892379F06091AF041F
:1030A0007091B0048091B1042C2D4C2FF80109953A
:1030B0007DDC472F282FCE0146DD2196DBCF60ED4A
:1030C00072E1BCCF65EE72E1B9CF67EE72E1B6CFC7
:1030D00060EF72E1B3CF69EF72E1B0CFB0E0A0E092
:1030E000E4E7F8E10C9413295C016B01FC01808199
:1030F000E4DEC82FF92E6091B20466956695809142
:10310000B6049091B704F0D9182F80E4810F29DA22
:1031100090E8992E980E812F24DA20E8822E880ECE
:10312000D0E0CF1550F081E090E59F1508F480E0E5
:10313000CDB7DEB7ECE00C942F29FE01E050FE4F36
:103140008081F5019181892389F06091AF047091AC
:10315000B0048091B104E12E0C2F282D492DF601E9
:10316000099524DC472F282FCE01EDDC2196D9CFFD
:1031700067E473E1B3CF64E773E1B0CFB0E0A0E000
:10318000E4ECF8E10C9416298C017B01FC018081B0
:1031900094DEC82FB92E2091B20431E0230F08F439
:1031A0002FEF30E050E040E06FEF7FEF80E090E005
:1031B0000E94EB286901D0E02C2FCB1550F081E064
:1031C000F0E5FB1508F480E0CDB7DEB7E9E00C943C
:1031D0003229FE01E050FE4F8081F8019181892360
:1031E000F1F04091BA044150042E000C550B47FFFA
:1031F00018C0C6016091B20421E0620F08F46FEFBD
:1032000073D9AC016091AF047091B0048091B104A6
:10321000F7010995CBDB472F282FCE0194DC2196AF
:10322000CBCFFA01E654FB4F818982130AC0FA0121
:10323000EE0FFF1FE654FB4F818D928D8C159D057F
:10324000C8F241505109D3CF62EA73E197CF6FEAD8
:1032500073E194CFAAE0B0E0E0E3F9E10C940D292A
:103260008B832B015E834D83FB01808126DE9A8355
:10327000F091BA04FC83282F30E03A872987C901EE
:10328000880F991FFC01E25AFE4F6F01FB818F2FBF
:1032900090E09C012F5F3F4F38872F83EA81F985AB
:1032A000FE1740F081E0E13508F080E02A96E2E187
:1032B0000C942929E985FA85E050FE4F8081F201BE
:1032C00091818923E1F03090AF041091B0042F81F7
:1032D000388526543B4F39013B813983212C298184
:1032E0003C812317A8F06091B104822DF5D8632D9D
:1032F000712F5CDB472F282F89859A8524DC8985EF
:103300009A8501969A87898792E0C90ED11CC6CF0B
:10331000F30181913F01F601A080A81ABB088180CA
:10332000F3018781881A9908AA9C9001AB9C300D03
:10333000300D1124889CC001899C900D900D1124A2
:10334000820F931FDED8082F6091B20421E0620F34
:1033500008F46FEFF301EE0FFF1FEA5BF44085897D
:103360009689C2D87C019401A501632D712F822D0D
:10337000ED81FE810995362E172FF981FF5FF983C4
:10338000282EADCF2091BA0431E0231B08F420E0B1
:1033900041EC53E1BC01822F5DCF41EC53E1BC0114
:1033A00080E058CF2091BA0431E0231B08F420E0DC
:1033B0004AED53E1BC01822F4DCF4AED53E1BC01F0
:1033C00080E048CF2091BA0431E0231B08F420E0CC
:1033D00045E154E1BC01822F3DCF45E154E1BC0100
:1033E00080E038CF2091BA0431E0231B08F420E0BC
:1033F00047E454E1BC01822F2DCF47E454E1BC01E6
:1034000080E028CF2091BA0431E0231B08F420E0AB
:103410004FE554E1BC01822F1DCF4FE554E1BC01C3
:1034200080E018CFB0E0A0E0E8E1FAE10C941729C1
:103430007C01FC01808141DDC82F192F6091AF0410
:103440007091B0048091B104B1DA062FD72EC82E46
:10345000D0E0C11748F081E0113508F080E0CDB729
:10346000DEB7E8E00C943329FE01E050FE4F808186
:10347000F7019181892329F02C2D4D2D602FCE014C
:1034800062DB2196E6CF0F931F93CF93DF93EC017E
:10349000888181112DC06091B20420E1620F08F48F
:1034A0006FEF8091B6049091B7041ED86AE070E087
:1034B0000E94A228892BE1F440915D0250915E02A6
:1034C00025E038E0429FC001439F900D529F900D30
:1034D0001124875E994C90935E0280935D02890F60
:1034E00021E5829FC001112490935502109256024B
:1034F0008881E3DC092F182F9A8191111AC020913D
:103500005502309156028217130609F0A0F40217F3
:10351000130689F080F06981822F2CDB82E590E030
:10352000909356028093550206C06981812F22DB59
:103530001F5F1017D0F381E0013508F080E0DF91C4
:10354000CF911F910F910895B0E0A0E0EAEAFAE16F
:103550000C940F296C01DC018C91AFDC682E992E44
:10356000F6018281882359F040E060E080E04DDB85
:10357000E4E2F4E08AE5DF011D928A95E9F7F601BD
:103580008081811113C080917F049091800408D7BD
:1035900021E08931910508F420E020937E044997C9
:1035A00028F052D79093800480937F04F12C00E0A0
:1035B000E12C8FE0782E9AEA892E05C080E18E15E5
:1035C00008F451C000E0802F90E07F9CE0011124BE
:1035D0009E012C5F3E4F5901A80EB91ED501EC91FA
:1035E000E61508F438C0E91508F035C0E394F0E0BA
:1035F000E050FE4F2081F6013181232361F1CC5D43
:10360000DB4FC80FD91F1881212F35E5231B08F484
:1036100020E0482C421A5090B004282D210F08F4C5
:103620002FEF822F880F820F6091B1048E5F0E946E
:103630006C12B201BBD9472FD5019C91282F892F3D
:1036400090E081DA80917E04882329F021E0121B2A
:1036500008F410E018830F5F0F3009F0B4CFF39433
:1036600036E0F312ABCF81E090E5991508F480E0E5
:10367000CDB7DEB7E0E10C942B2981E00895FDCFB2
:103680000895FBCF0895CF93DF93FC018081815093
:1036900014DCEC016D2FF3DF6D2F8C2FF2DFDF9147
:1036A000CF9108954F925F926F927F928F929F92E7
:1036B000AF92BF92CF92DF92EF92FF92CF93609141
:1036C000200470912104809122049091230471D6EA
:1036D0006B017C01C5D64B015C0180922004909265
:1036E0002104A0922204B0922304A091F703E7EFF3
:1036F000F3E08A2F90E04FEF5FEF60E070E04C194D
:103700005D096E097F09A91325C08093F703809195
:10371000AE04C82FC37019F0C82FC695C6959091F6
:103720005702913009F440C0992339F1923009F4DD
:10373000F6C0933009F4FBC0CF91FF90EF90DF907B
:10374000CF90BF90AF909F908F907F906F905F9041
:103750004F900895218D328D2901712C612C4415D3
:1037600055056605770520F481509F5F3296CBCFD3
:103770002C0D3D1D328F218FF8CF10925802809270
:10378000B6049092B704A092B804B092B90489E24A
:10379000E7EFF3E0AAEBB4E001900D928A95E1F730
:1037A00081E080935702C8CF90915B02C91321C07A
:1037B000837020915C0230E091E08217130609F4D7
:1037C00090E0892F817080935A028091B304909188
:1037D0005902981731F08093590240E060E080E090
:1037E00014DACC3180F4EC2FF0E0E25CF54D0C946F
:1037F000072981E0E7CF80915A02882349F040E011
:1038000060E080E002DA80E003C088E592E00ADE52
:10381000909158029F5F90935802811177C082E087
:103820008093570280915A0281119DC0CC2309F4E4
:103830007CC040DB88E592E026DF7ECF88E592E021
:103840003EDCE6CF88E592E03DDCE2CF88E592E021
:103850003CDCDECF88E592E03BDCDACF88E592E025
:103860003ADCD6CF88E592E092DBD2CF88E592E0D1
:10387000DFDBCECF88E592E0DEDBCACF88E592E0E1
:1038800089DBC6CF88E592E073DCC2CF88E592E0A1
:1038900072DCBECF88E592E0F6DDBACF88E592E033
:1038A00053DEB6CF88E592E0B6D9B2CF88E592E094
:1038B000CBDCAECF88E592E0CADCAACF88E592E007
:1038C00061DDA6CF88E592E068DDA2CF88E592E0D1
:1038D00069DD9ECF88E592E070DD9ACF88E592E0C1
:1038E00071DD96CF88E592E078DD92CF88E592E0B1
:1038F00079DD8ECF88E592E080DD8ACF88E592E0A1
:1039000081DD86CF88E592E088DD82CFCC2309F483
:1039100013CF80915702823009F08CCF8ACFC093A9
:103920005B02837080935C0207D983E03ACF809179
:10393000F603882331F08EEA94E00E94610C109225
:10394000F6036091B6047091B7048091B804909129
:10395000B9042FD5603171058105910508F4ECCECD
:1039600010925702E9CECC2309F4E6CE62CFE09163
:10397000FF02F091000309951092BA048FEF9FEFB8
:103980009093D4048093D3049093D6048093D50469
:103990009093D8048093D7049093DA048093D90449
:1039A0009093DC048093DB049093DE048093DD0429
:1039B0009093E0048093DF049093E2048093E10409
:1039C0001092F703909311048093100490931304C2
:1039D0008093120490931504809314049093170419
:1039E00080931604909319048093180490931B04F9
:1039F00080931A0490931D0480931C0490931F04D9
:103A000080931E0481E08093F6038EEA94E00E9486
:103A10005F0C1092F6038091AE048C7F09F455C8B8
:103A200008950895EEEAF4E0908121E092279083D2
:103A3000109257020C94751481E0F4CF8091AE047B
:103A4000837011F4109257028091AE048C7F8160D4
:103A50008093AE040895F2DF81E00C947514809198
:103A6000AE04837011F0109257028091AE048C7FE7
:103A70008093AE040895F3DF81E00C947514909167
:103A8000AE04937051F0811109C094609093AE041C
:103A900010925702862F0C94751408958C3110F0F3
:103AA0009C66F4CF282F220F220F922BEFCF682F86
:103AB0009091AE049695969581E0890F8C3108F02F
:103AC00081E0DDCF81E0F3CF682F9091AE04969531
:103AD00096958FEF890F09F48BE1D1CF81E0F4CF78
:103AE0009091AE04937061F08093AF046093B00442
:103AF000453B08F044EB4093B104822F0C947514BD
:103B00000895AEEAB4E01196EC911197F0E0282FF9
:103B100013964C91139712966C91CF010896E0CFB3
:103B200081E0EFCFEEEAF4E09181282F43816281BA
:103B3000E92FE850FF0BCF01D3CF81E0F3CFEEEABE
:103B4000F4E0628120E1620F08F46FEF9181282F89
:103B50004381892F90E0C4CF81E0F1CFEEEAF4E019
:103B6000628120E1621B08F460E09181282F43818B
:103B7000892F90E0B5CF81E0F1CFEEEAF4E0438108
:103B800020E1420F08F44FEF9181282F6281892FA5
:103B900090E0A6CF81E0F1CFEEEAF4E0438120E1AE
:103BA000421B08F440E09181282F6281892F90E028
:103BB00097CF81E0F1CFEEEAF4E0248130E1230FEA
:103BC00008F42FEF24830C94751481E0F4CFEEEA0F
:103BD000F4E0248130E1231B08F420E024830C94DA
:103BE000751481E0F4CF279A0895FC01EE0FFF1FB2
:103BF000E80FF91FED51FB4F618340832283089545
:103C0000E3EEF4E0818360834283339695E0E63D02
:103C1000F907C1F7089535B13F7725B120684FB74F
:103C2000F89483EE94E0FC015191CF0168E025B94E
:103C3000000000C057FF35B9550F000000C000C09C
:103C400000C035B900C06A9591F7F5E0863D9F0741
:103C500051F74FBF8FE594E00197F1F700C00000E6
:103C600008950C94510C089580E00E94E20F817039
:103C700008950E94A7102FEF86E791E02150804021
:103C80009040E1F700C000000E94A710EDDF8823FC
:103C900011F0E7DF15C40895ECCF0895CF93DF93BB
:103CA000EB0186319C4701F50E94210B9D819923F0
:103CB00091F08A7A91E009F490E090938104811167
:103CC00008C089E2C6D20E94CC0B80E0DF91CF9180
:103CD000089585E3F7CF80918104811103C089E2C3
:103CE000CFD2F1CF85E3FCCF81E0F0CFCF93DF934C
:103CF000EC01FB018581882309F4CEC09E01305779
:103D00002332310508F0AEC084E994E00E945B0CD8
:103D1000FE01E150F047E232F10520F4E65AF54D9C
:103D20000C9407298091940481608093940493C03B
:103D3000809195048860809395048DC0809194044F
:103D40008260F3CF809194048460EFCF80919404DB
:103D50008860EBCF809195048160EDCF80919504D0
:103D60008260E9CF809194048061DFCF80919404D8
:103D70008062DBCF809194048064D7CF0E94EF06ED
:103D8000809194048068D1CF809194048C60CDCFD1
:103D9000809195048360CFCF809194048E7FC5CFAE
:103DA00080919504877FC7CF809194048D7FBDCF8C
:103DB000809194048B7FB9CF80919404877FB5CF95
:103DC000809195048E7FB7CF809195048D7FB3CF7E
:103DD000809194048F7EA9CF809194048F7DA5CF8C
:103DE000809194048F7BA1CF0E94EF068091940470
:103DF0008F779BCF80919404837F97CF8091950498
:103E00008C7F99CF8091940482FB992790F921E0CF
:103E1000922790FB82F990FB83F987CF80919504DC
:103E2000982F909591708E7F892B90FB81F983CF8D
:103E300090919404892F8F7B96FF806476CF0E94A7
:103E4000EF0690919404892F97FB87F980586DCFE6
:103E500081E00E94630C84E994E00E945D0C0E9462
:103E6000EF0680E0DF91CF91089580E0F2CF90914E
:103E70009404892F8F7E94FF806157CF9091940492
:103E8000892F8E7F90FF816050CF90919504892F6C
:103E9000877F93FF88604FCF81E0E4CF0F931F931C
:103EA000CF93DF93C42FD22FFC0185818823C1F0EB
:103EB00040938404C9D2909383048093820480E267
:103EC0008C0F883040F4C77081E001C0880FCA951C
:103ED000EAF70E94E304DF91CF911F910F910895BB
:103EE00010918404141331C0809182049091830452
:103EF00057D2883C910548F5C0E2CD0F1D17B9F0A7
:103F000080E2810F883040F4177081E001C0880F93
:103F10001A95EAF70E94E804C83048F481E09D2F22
:103F2000977001C0880F9A95EAF70E94E304802FEA
:103F30000E94DC04C83078F6D77081E001C0880F99
:103F4000DA95EAF70E94E804C6CF80E28C0F883049
:103F500010F6C77081E001C0880FCA95EAF7F2CF6A
:103F60000F93DB0188519C478730910598F5FC0140
:103F7000E458F54D0C94072906E221EE41EE6AE182
:103F80007CE7CD018BDF80E00F91089507E225EEFD
:103F900045EE6BE17CE7F5CF06E221EE40EE68E10D
:103FA0007CE7EFCF07E225EE44EE69E17CE7E9CF5D
:103FB00006E221EE42EE6CE17CE7E3CF07E225EE7C
:103FC00046EE6DE17CE7DDCF08E221E045EE6EE1F3
:103FD0007CE7D7CF15968C91882319F01092840432
:103FE000D3CF81E0D1CF90938A0480938904089540
:103FF000B5D191E0813009F090E0892F0895E091EA
:104000008904F0918A04309739F00190F081E02D15
:10401000309711F00995089580E00895F0CF089544
:10402000E0918904F0918A04309731F00280F381A5
:10403000E02D309709F009950895E0918904F091F9
:104040008A04309759F024813581232B39F026E0FA
:10405000DC012C930480F581E02D09950895A3E0FF
:10406000B0E0E5E3F0E20C941D2920918704309143
:10407000880428173907B1F0909388048093870447
:10408000E0918904F0918A04309761F00084F18511
:10409000E02D309739F023E029839B838A83CE017A
:1040A000019609952396E2E00C943929A3E0B0E04B
:1040B000ECE5F0E20C941D292091850430918604F2
:1040C00028173907B1F09093860480938504E09116
:1040D0008904F0918A04309761F00084F185E02D25
:1040E000309739F024E029839B838A83CE0101969F
:1040F00009952396E2E00C943929CF93DF93C09180
:104100005302D0915402229673DF882381F080916C
:10411000940487FF0CC0C0915102D09152022296A4
:104120009EE180E0915028F4DF91CF91089596E0D0
:10413000F8CF29912223B1F38F5FF4CFCF93C82F0B
:10414000811102C080E023C053DF882311F18091E8
:10415000940487FF1EC0EC2FE695E695E695EE31B8
:1041600088F78091510290915202E80FF92FF11DCA
:10417000228130E0C77081E090E002C0880F991F73
:10418000CA95E2F72823392381E0232BD9F2CF9176
:1041900008958091530290915402FC013296089642
:1041A00021912C1721F0E817F907D1F7CBCF81E047
:1041B000EECF9C01FC0132969FEF80E041914617C3
:1041C00051F09F3F19F4411101C0982F8F5F863045
:1041D000A9F79F3F09F40895290F311D97FD3A95DE
:1041E000F90162830895FC01329608962191261305
:1041F00003C0DF0111971C92E817F907B9F708957A
:10420000E62FE695E695E695EE3168F4E80FF92F8E
:10421000F11D677021E030E001C0220F6A95EAF7D6
:104220008281822B82830895E62FE695E695E695B6
:10423000EE3170F4E80FF92FF11D677021E030E0E6
:1042400001C0220F6A95EAF72095828128232283F4
:104250000895CF93C82FCCDE6C2F882359F080911E
:10426000940487FF07C08091510290915202C8DFE9
:10427000CF91089580915302909154029ADFF8CF24
:10428000CF93C82FB5DE6C2F882359F0809194040A
:1042900087FF07C08091510290915202C5DFCF91F4
:1042A000089580915302909154029DDFF8CFA0DED3
:1042B000882379F08091940487FF0BC0E09151022C
:1042C000F091520232968EE1DF011D928A95E9F754
:1042D0000895E0915302F0915402329686E0F4CFB3
:1042E0000895FECF089581110CC081E08093620291
:1042F00060915F0270916002809161029091620210
:10430000F0CF82E0F3CF83E08093620260915F029E
:10431000709160028091610290916202E2CFE3CFDE
:10432000089581E08093620260915F027091600263
:104330008091610290916202D4CFF3CF089591E011
:10434000811101C090E09093610260915F027091D1
:1043500060028091610290916202C3CF80916102FC
:1043600008958093600260915F0270916002809175
:10437000610290916202B5CF8091600208958093AE
:104380005F0260915F027091600280916102909182
:104390006202A7CF80915F0208950895FECF08952D
:1043A000CF93DF93EC0150D08C1B9D0BDF91CF910D
:1043B0000895CF92DF92EF92FF926B017C0150D073
:1043C0006C197D098E099F09FF90EF90DF90CF90C7
:1043D000089585B7806885BF85B7806885BF0895D3
:1043E0001F921FB61F9211248F939F93AF93BF9379
:1043F00080918B04811113C08091D6059091D705CF
:10440000A091D805B091D9054196A11DB11D809309
:10441000D6059093D705A093D805B093D905BF9141
:10442000AF919F918F911F901FBE1F9018950E9472
:10443000EF060C94930382E084BD93E095BD9AEF60
:1044400097BD80936E0008952FB7F8948091D6059C
:104450009091D705A091D805B091D9052FBF0895A7
:104460002FB7F8946091D6057091D7058091D80543
:104470009091D9052FBF089578941F921FB61F926F
:1044800011248F939F93AF93BF938091D605909102
:10449000D705A091D805B091D9050196A11DB11DF0
:1044A0008093D6059093D705A093D805B093D905EE
:1044B000BF91AF919F918F911F901FBE1F90189534
:1044C00081E08093E00080E28093D8001092C900E0
:1044D0008FE19EE40197F1F700C0000087E090EBC8
:1044E000DC018093E7059093E805A093E905B0937C
:1044F000EA0588E19CE00FB6F894A89580936000E7
:104500000FBE90936000FFCF88E19CE00FB6F89457
:10451000A895809360000FBE90936000FFCF089530
:104520009B01BA019091DE059430E1F48F70809385
:10453000E9009FEF8091E800915085FD06C085ED70
:104540008A95F1F700009111F5CF8091E80085FF81
:1045500009C050E040E0C9018BD18091E8008E771E
:104560008093E800089543E050E0BC0182E0D8CF9A
:1045700040E250E0BC0182E0D3CFCF93DF93EC0167
:10458000EDDE48E050E0BE0181E0CADF88E0FE01D8
:10459000ACE8B4E001900D928A95E1F7DF91CF91FC
:1045A00008958091DD05811107C0F0D247D3809135
:1045B000E20084608093E20008951092DD05089582
:1045C000B0DE81E0BCCE6091DA0581E0611101C00E
:1045D00080E099CE2CDF9091DE0581E0943009F0E7
:1045E00080E06091DA059BCE42E061EC81E04AD246
:1045F00042E261EC82E046D29091DE0581E09430A7
:1046000009F080E06091DA056ECE8091E00583309C
:1046100009F45EC030F48130C1F1823009F494C0F5
:1046200008958A3009F483C08B3009F46BC0893057
:1046300009F04DC08091DF05813209F048C08091BA
:10464000E3059091E405029708F041C08091E800ED
:10465000877F8093E8008091E80082FF34C09091CA
:10466000F3008091F200029731F48091F1008130E3
:1046700011F0863019F48091F10073DE8091E8002A
:104680008B778093E80032D222C08091DF05813A97
:10469000F1F48091E800877F8093E8008091E30542
:1046A0009091E405892B59F468E08CE894E070E07F
:1046B0002CD18091E8008B778093E800089560E02A
:1046C00090E080E0F4CF8091DE058111C4CF0895A1
:1046D0008091DF05813AD9F78091E3059091E40557
:1046E000892BA9F78091E800877F8093E80080916B
:1046F000E80080FFFCCF32DE8093F1008091E8007B
:104700008E77BFCF8091DF05813209F78091E30575
:104710009091E405892BD9F68091E800877F8093FA
:10472000E800E4D18091E1050ADE0C94EF06809167
:10473000DF05813261F68091E800877F8093E80091
:10474000D5D18091E2051BCE8091DF05813A09F039
:10475000BECF8091E800877F8093E8008091E800D9
:1047600080FFFCCF17DEC8CF84B7877F84BF0FB62A
:10477000F894A89580916000886180936000109201
:1047800060000FBE80E890E00FB6F894809361005F
:10479000909361000FBED1CDF9D150D2E2EEF0E09E
:1047A0008081846080837894B3C483E692E01BCCDC
:1047B000089508959A014091E5055091E60500C0DD
:1047C000492F55274330510519F168F441305105FF
:1047D00009F444C04230510509F445C090E080E03E
:1047E00050E040E025C04132510549F142325105C7
:1047F000A9F784E490E040EF53E061157105C1F042
:104800008DE690E043E853E06130710589F0E6CF32
:1048100099278130910581F0009729F00297F1F6F0
:10482000E4E1F3E002C0E2E3F3E0849190E0AF0161
:10483000F901518340830895E8E2F3E0F6CF89E07F
:1048400090E048E453E06115710591F389E090E050
:1048500041E653E06130710559F3C0CF82E190E049
:1048600041E753E0E5CF8BE390E046E353E0E0CF50
:10487000AF92BF92CF92DF92FF920F931F93CF938D
:10488000DF936C01EB018A0150D1F82E811123C016
:104890000115110539F0F80180819181C81BD90BF0
:1048A000C80ED91EB12CA12C2097A9F08091E80048
:1048B00085FD21C08091E8008E778093E800011586
:1048C0001105A1F0F80180819181A80EB91EB18275
:1048D000A08285E0F82E8F2DDF91CF911F910F914F
:1048E000FF90DF90CF90BF90AF9008951ED18823A6
:1048F000D9F2F82EF0CFF60181916F018093F1008B
:104900002197FFEFAF1ABF0ACFCFFC018091E505D9
:104910009091E60586179707A0F06115710529F4B7
:104920009091E8009E779093E80090E06115710502
:1049300051F4911108C08091E80082FF34C080E0FA
:104940000895BC01F2CF8091DE058823C1F1853046
:10495000C1F18091E80083FD30C08091E80082FDC4
:10496000EACF8091E80080FFE1CF8091F3002091B1
:10497000F200382F6115710519F02830310558F013
:1049800091E02830310509F090E02091E8002E7781
:104990002093E800CBCF81918093F10061507109A1
:1049A0002F5F3F4FE7CF8091DE05882341F08530B0
:1049B00041F08091E80083FFBECF81E0089582E05E
:1049C000089583E00895FC018091E5059091E60546
:1049D00086179707A0F06115710529F48091E8000A
:1049E0008E778093E80090E06115710551F4911184
:1049F00008C08091E80082FF35C080E00895BC01C6
:104A0000F2CF8091DE058823C9F18530C9F180910C
:104A1000E80083FD31C08091E80082FDEACF8091FB
:104A2000E80080FFE1CF8091F3002091F200382F61
:104A30006115710519F02830310558F091E02830E2
:104A4000310509F090E08091E8008E778093E800CE
:104A5000CBCF84918093F1003196615071092F5F23
:104A60003F4FE6CF8091DE05882341F0853041F04D
:104A70008091E80083FFBDCF81E0089582E0089532
:104A800083E00895982F973028F08F708093E90085
:104A900081E008959093E900242F762F50E0981735
:104AA00031F07091EC002091ED005091F00021FD6B
:104AB00002C09F5FE8CF3091EB003E7F3093EB0068
:104AC0003091ED003D7F3093ED003091EB0031608F
:104AD0003093EB007093EC002093ED005093F000C6
:104AE0002091EE0027FDE5CF80E008958091DF055D
:104AF00087FF13C08091E80082FF06C08091E80024
:104B00008B778093E80004C08091DE058111F2CF9D
:104B100008958091DE058823D9F38091E80080FF15
:104B2000F8CF8091E8008E77ECCF2091E4003091AF
:104B3000E50095E6A9012091EC00822F817020FF0D
:104B400006C08091E80080FF06C080E008952091B3
:104B5000E80022FD1AC08091DE05882389F08530A7
:104B600089F08091EB0085FD0FC02091E400309129
:104B7000E50042175307F9F29150E1F684E00895F9
:104B800082E0089583E0089581E0089567D06ED0B3
:104B9000E0EEF0E0808181608083E8EDF0E08081EC
:104BA0008F77808319BCA7EDB0E08C918E7F8C93BA
:104BB00080818F7E80831092DD0508950F931F936F
:104BC000CF93DF934BD052D0C8EDD0E088818F7760
:104BD000888388818068888388818F7D888319BCD9
:104BE0001092DE051092DA051092DC051092DB05BA
:104BF00000EE10E0F80180818B7F808388818160E6
:104C0000888342E060E080E03DDFE1EEF0E080811B
:104C10008E7F8083E2EEF0E08081816080838081FE
:104C200088608083F80180818E7F808388818061A5
:104C30008883DF91CF911F910F910895E8EDF0E007
:104C400080818F7E8083E7EDF0E0808181608083CA
:104C500084E082BF81E08093DD05B0CFE8EDF0E035
:104C600080818E7F80831092E20008951092DA0096
:104C70001092E10008951F920F920FB60F92112427
:104C80002F933F934F935F936F937F938F939F9354
:104C9000AF93BF93EF93FF938091E10082FF0AC02F
:104CA0008091E20082FF06C08091E1008B7F8093BB
:104CB000E1002DD28091DA0080FF18C08091D800E9
:104CC00080FF14C08091DA008E7F8093DA0080919B
:104CD000D90080FF91C080E189BD82E189BD09B41E
:104CE00000FEFDCF81E08093DE055BDC8091E1007A
:104CF00080FF18C08091E20080FF14C08091E20024
:104D00008E7F8093E2008091E20080618093E200D8
:104D10008091D80080628093D80019BC85E0809390
:104D2000DE0551DC8091E10084FF2AC08091E20021
:104D300084FF26C080E189BD82E189BD89B5982FB5
:104D4000917080FFFBCF8091D8008F7D8093D80039
:104D50008091E1008F7E8093E1008091E2008F7E60
:104D60008093E2008091E20081608093E200809174
:104D7000DA05882309F445C084E08093DE052ADC47
:104D80008091E10083FF27C08091E20083FF23C070
:104D90008091E100877F8093E10082E08093DE05CF
:104DA0001092DA058091E1008E7F8093E10080917E
:104DB000E2008E7F8093E2008091E2008061809328
:104DC000E20042E060E080E05DDE8091F00088601B
:104DD0008093F000F5DBFF91EF91BF91AF919F9130
:104DE0008F917F916F915F914F913F912F910F9094
:104DF0000FBE0F901F90189519BC1092DE05DDDBD9
:104E000075CF8091E30087FD93E09093DE05B7CFE7
:104E10001F920F920FB60F9211242F933F934F932F
:104E20005F936F937F938F939F93AF93BF93CF9332
:104E3000DF93EF93FF93D091E900DF708091EC0056
:104E4000C82FC17080FDC0E81092E9008091F00089
:104E5000877F8093F00078941ED01092E9008091B3
:104E6000F00088608093F000CD2BCF70C093E900F4
:104E7000FF91EF91DF91CF91BF91AF919F918F9172
:104E80007F916F915F914F913F912F910F900FBE46
:104E90000F901F901895AAE2B0E0E0E5F7E2CCC1D0
:104EA0008FED95E02091F100FC012193CF01F5E019
:104EB000873E9F07B9F7A9DB8091E80083FF16C101
:104EC0008091DF059091E0059A3008F00FC1E92F3D
:104ED000F0E0ED57F54D9BC1803899F0823809F02C
:104EE00005C18091E3058F70873008F0FFC0809383
:104EF000E9008091EB0085FB882780F91092E9009A
:104F000006C08091DB059091DC0591118260909143
:104F1000E800977F9093E8008093F1001092F100F1
:104F20008091E8008E77DFC0882309F4CDC08230FD
:104F300009F0DCC08091E1058111D0C08091E305CA
:104F40008F702FEF280F263008F0D0C08093E90033
:104F50002091EB0020FFC2C0933031F48091EB0030
:104F600080628093EB00BAC09091EB0090619093C7
:104F7000EB0021E030E001C0220F8A95EAF7209390
:104F8000EA001092EA008091EB008860EACF81117C
:104F9000ADC01091E1051F778091E3008078812BEF
:104FA0008093E3008091E800877F8093E8009EDD96
:104FB0008091E80080FFFCCF8091E30080688093BF
:104FC000E30082E0111183E08093DE058FC08058FA
:104FD000823008F08BC08091E1059091E2058C3D14
:104FE00023E0920799F583E08A838AE289834FB7A9
:104FF000F894DE01139620E03EE051E2E32FF0E06A
:1050000050935700E49120FF03C0E295EF703F5F9B
:10501000EF708E2F90E0EA30B8F0C7968D939D9395
:105020002F5F243159F74FBF8091E800877F80932D
:10503000E8006AE270E0CE01019667DC8091E8004A
:105040008B778093E80052C0C096E8CF6091E3056B
:105050007091E405AE014F5F5F4FACDBBC01892B63
:1050600009F444C09091E800977F9093E80089810B
:105070009A81A9DCE3CF8038C9F58091E800877F69
:105080008093E8008091DA058093F10049CF811187
:105090002DC09091E105923048F58091E800877F1E
:1050A0008093E8009093DA0521DD8091DA0588236A
:1050B00011F084E005C08091E30087FDFACF81E024
:1050C0008093DE0591DA12C08091E105813071F4A0
:1050D00081E0933009F080E08093DC051092E900D4
:1050E0008091E800877F8093E80000DD8091E800F0
:1050F00083FF0AC08091E800877F8093E800809159
:10510000EB0080628093EB00AA96E3E0B1C00895C3
:10511000CF938091DE05882399F0C091E900CF708C
:105120009091EC00892F817090FD80E8C82B10923F
:10513000E9008091E80083FDAEDECF70C093E90006
:10514000CF910895AA1BBB1B51E107C0AA1FBB1F2B
:10515000A617B70710F0A61BB70B881F991F5A9503
:10516000A9F780959095BC01CD01089597FB072E76
:1051700016F4009406D077FD08D0E4DF07FC05D0D4
:105180003EF4909581959F4F0895709561957F4F5E
:105190000895A1E21A2EAA1BBB1BFD010DC0AA1F78
:1051A000BB1FEE1FFF1FA217B307E407F50720F090
:1051B000A21BB30BE40BF50B661F771F881F991F0B
:1051C0001A9469F760957095809590959B01AC0154
:1051D000BD01CF010895052E97FB16F400940FD062
:1051E00057FD05D0D6DF07FC02D046F408C0509525
:1051F0004095309521953F4F4F4F5F4F08959095C3
:105200008095709561957F4F8F4F9F4F0895EE0F5A
:10521000FF1F0590F491E02D09942F923F924F9239
:105220005F926F927F928F929F92AF92BF92CF9236
:10523000DF92EF92FF920F931F93CF93DF93CDB73F
:10524000DEB7CA1BDB0B0FB6F894DEBF0FBECDBFB7
:1052500009942A88398848885F846E847D848C8488
:105260009B84AA84B984C884DF80EE80FD800C8191
:105270001B81AA81B981CE0FD11D0FB6F894DEBF74
:105280000FBECDBFED0108958F929F92AF92BF9256
:10529000CF92DF92EF92FF92CF93DF93EC01688180
:1052A00079818A819B81611571058105910521F4C0
:1052B00064E279ED8BE597E02DE133EF41E050E0DA
:1052C0008ADF49015A019B01AC01A7EAB1E491D000
:1052D0006B017C01ACEEB4EFA501940196D0DC012A
:1052E000CB018C0D9D1DAE1DBF1DB7FF03C00197E7
:1052F000A109B04888839983AA83BB839F77DF91F4
:10530000CF91FF90EF90DF90CF90BF90AF909F90A4
:105310008F900895B9CF80E091E0B6CFB0E0A0E0E3
:105320008093000190930101A0930201B0930301C7
:105330000895FB01DC0104C08D910190801921F4D6
:1053400041505040C8F7881B990B0895FB01DC01C0
:1053500002C001900D9241505040D8F70895DC01F1
:10536000CB01FC01F999FECF06C0F2BDE1BDF89A70
:10537000319600B40D9241505040B8F70895F99914
:10538000FECF92BD81BDF89A992780B50895A8E116
:10539000B0E042E050E0E5CFDC01A40FB51F415082
:1053A000504040F0CB01840F951F2E9105D0415005
:1053B0005040D8F70895262FF999FECF92BD81BDB0
:1053C000F89A019700B4021639F01FBA20BD0FB643
:1053D000F894FA9AF99A0FBE08950396272FECDFF6
:1053E000EADF252FE9DF242FE7CF0196272FE4DF1F
:1053F000E2CF0FD0A59F900DB49F900DA49F800D7C
:10540000911D11240895B7FFF4CFF3DF821B930B96
:105410000895A29FB001B39FC001A39F700D811D8D
:105420001124911DB29F700D811D1124911D0895AD
:10543000F894FFCF2B052B0561056105BA055305CF
:1054400053055305D6053F064B064B064811501130
:1054500055115A115F11641169116E117311781190
:105460007D119911A011A311A611AB11B011B511A5
:10547000BA11BF11C411C911CE11D311FB1B051CE8
:105480001E1C221C261C2A1C2E1C321C361C3A1CDC
:105490003E1C421C461C4A1C4E1C521C561C5A1CCC
:1054A0005E1C621C661C6A1C6E1C721C761C7A1CBC
:1054B0007E1C821CCC1E3E1FD41E9E1EA21ED81E09
:1054C000A61EDC1EE81EB21E371FB61EEC1EBA1E3C
:1054D000F01E181FBE1EF41E1F1FC41EFA1E021F40
:1054E000AA1EE01EAE1EE41EC81EFE1E0E1F281FB2
:1054F000351F981ED01E451FCC1FD21FBC1FC61FB4
:10550000D81FDE1FE41F6C2794277628942776285F
:0A551000C727E72776283B28472825
:10551A0001000000000102030405060708090A0B3E
:10552A000CFF0D1C1B1A191817161514131211103B
:10553A000F0E1D1E1F202122232425262728292A53
:10554A002B393837363534333231302F2E2DFF2C64
:10555A003A3B3C3D3E3F404142434445FF4647506B
:10556A004F4EFFFF4DFFFF4C4BFF4AFF49480000DB
:10557A0017002600360045004B005A0069007800E3
:10558A008F009E00AD00BC00E100E112CB12B41204
:10559A00A51296128712781269125A124B123C12ED
:1055AA002D121E120F120012041E131E221E311E6D
:1055BA00401E4F1E541E631E721E811E901E9F1E89
:1055CA00AE1EDB1EE11EE129C929BF29A1299229A4
:1055DA0083297429652956294729382929291A2905
:1055EA0006290D342234313440344F345E346D345C
:1055FA007C348B349A34A934BD34D234E134E1405A
:10560A00D240C340BA40A7405E40274015400240FE
:10561A000404040404040404040404040404040440
:10562A000404040404040404040404040404040430
:10563A000404040404040404040404040404040420
:10564A000404040404040404040404040404040410
:10565A000404040404040404040404040404040400
:10566A0004B003D00352000300FF00FFFF39050016
:10567A00000100BC21BD22B8228F22B32200FFB450
:10568A00E200E900EA00B500B600B700CD008301E8
:10569A00CC008A01920194012102230224022502EC
:1056AA00260227022A02B300B4006F0070009F018D
:1056BA00CB019F02A002818283E200E900EA00B5E1
:1056CA0000B600B700CD008301CC008A0192019494
:1056DA00012102230224022502260227022A02B3FA
:1056EA0000B4006F0070009F01CB019F02A00281ED
:1056FA00828330313233C6F090919496973435369E
:10570A0066F4F5F6F767F1003131295A1B750AF389
:08571A001DF51D001E0B1E0011
:00000001FF
